:100000000C94590B0C948A0B0C948A0B0C948A0B4D
:100010000C948A0B0C948A0B0C948A0B0C948A0B0C
:100020000C948A0B0C948A0B0C948A0B0C948A0BFC
:100030000C9423360C948A0B0C948A0B0C948A0B28
:100040000C948A0B0C948A0B0C948A0B0C948A0BDC
:100050000C948A0B0C948A0B0C948A0B0C94EE561D
:100060000C948A0B0C9485560C945B560C948A0B5A
:100070000C948A0B0C948A0B0C948A0B0C948A0BAC
:100080000C948A0B0C948A0B0C948A0B0C948A0B9C
:100090000C948A0B0C948A0B0C948A0B0C948A0B8C
:1000A0000C948A0B0C948A0B0C948A0B0C948A0B7C
:1000B0000C948A0B0C948A0B0C948A0B0C948A0B6C
:1000C0000C948A0B0C948A0B0C948A0B0C948A0B5C
:1000D0000C948A0B0C948A0B0C948A0B0C948A0B4C
:1000E0000C948A0B591D591D5E1D621D621D4E1D0B
:1000F0004E1D4E1D591D591D5E1D4943534353430B
:100100005343574353434F434F430C94562A0C9445
:100110009D460C942D210C94E9470C947A590C942B
:10012000D8250C94394C0C9465260C9479300C9499
:10013000EE1A0C9454300C9425550C9484410C9474
:100140001B1B0C94CF260C944E1D0C9449430C940D
:1001500045300C9453430C946B300C944E240C9407
:10016000FC360C948C0B0C9442260C94591A0C946B
:100170006F210C944F430C94C5260C94DB4D0C94CA
:100180006C370C94621D0C9447370C9457430C94B5
:10019000A5260C945E1D0C94D6550C9469370C94CE
:1001A000FE410C94591D666F726D61742C222D44B2
:1001B0006F6E652070617273696E672D2D2D2D2D08
:1001C0002D2D5C6E2200444542554700666F726DCE
:1001D00061742C2022556E737570706F7274656433
:1001E00020637269746963616C206F7074696F6EEB
:1001F0005C6E22005741524E494E4700756E6B6E41
:100200006F776E20282575290A004445425547001E
:10021000556E737570706F72746564207665727355
:10022000696F6E2025750A005741524E494E4700AE
:10023000436F6E74656E742D666F726D61742F619D
:1002400063636570742D56657273696F6E3A205BD7
:1002500025755D0A0044454255470053697A65316A
:10026000205B256C755D0A00444542554700536983
:100270007A6532205B256C755D0A0044454255471E
:1002800000426C6F636B31205B256C7525732028F1
:10029000257520422F626C6B295D0A00444542554A
:1002A0004700426C6F636B32205B256C75257320B1
:1002B00028257520422F626C6B295D0A0044454257
:1002C0005547004F627365727665205B256C755DDE
:1002D0000A004445425547005572692D51756572B3
:1002E00079205B252E2A735D0A004445425547005C
:1002F0005572692D50617468205B252E2A735D0A42
:10030000004445425547005572692D506F72742064
:100310005B25755D0A0044454255470041636365AE
:100320007074205B25755D0A0044454255470045C1
:10033000546167202575205B307825303258253090
:100340003258253032582530325825303258253031
:10035000325825303258253032585D0A0044454223
:100360005547004D61782D416765205B256C755DB3
:100370000A00444542554700436F6E74656E742D04
:10038000466F726D6174205B25755D0A00444542BD
:100390005547004F5054494F4E202575202864651D
:1003A0006C74612025752C206C656E20257A75296A
:1003B0003A2000444542554700546F6B656E202833
:1003C0006C656E20257529205B30782530325825E4
:1003D00030325825303258253032582530325825A1
:1003E00030325825303258253032585D0A004445A5
:1003F00042554700666F726D61742C22636F6170A5
:100400005F70617273655F6D6573736167655F636C
:100410006F6D6D6F6E206661696C6564215C6E2224
:1004200000444542554700666F726D61742C20226E
:10043000546F6B656E204C656E677468206D7573C4
:1004400074206E6F74206265206D6F726520746811
:10045000616E20385C6E22005741524E494E470073
:10046000666F726D61742C2022436F415020766557
:100470007273696F6E206D75737420626520315CD4
:100480006E22005741524E494E4700466F756E64CA
:10049000207472616E73616374696F6E20666F722F
:1004A000204D49442025753A2025700A00444542D4
:1004B000554700666F726D61742C2264726F7070A4
:1004C000696E67206475706C69636174652072651C
:1004D00071756573745C6E22004445425547006631
:1004E0006F726D61742C2022696E73756666696324
:1004F00069656E74206D656D6F727920746F20610F
:1005000064642074696D6564206576656E7420632B
:10051000616C6C6261636B5C6E22005741524E49A4
:100520004E4700666F726D61742C2022696E737580
:100530006666696369656E74206D656D6F7279209A
:10054000746F2061646420706572696F64696320F0
:100550006F6273657276652063616C6C6261636B58
:100560005C6E22005741524E494E4700666F726DD5
:1005700061742C20226F6372693A20436F756C643A
:10058000206E6F742066696E64206D6574686F6498
:100590005C6E22005741524E494E4700666F726DA5
:1005A00061742C20226F6372693A20436F756C640A
:1005B000206E6F742066696E64207265736F757249
:1005C00063655C6E22005741524E494E4700666F8C
:1005D000726D61742C20226F6372693A20426164EB
:1005E00020726571756573745C6E22005741524EBE
:1005F000494E4700666F726D61742C20226F6372E2
:10060000693A2052657175657374207061796C6FF9
:10061000616420746F6F206C617267652028686563
:100620006E636520696E636F6D706C657465295CBF
:100630006E22005741524E494E4700666F726D61FF
:10064000742C20226F6372693A20466F726269646B
:1006500064656E20726571756573745C6E220057F7
:1006600041524E494E47006F6372693A206572727B
:100670006F722070617273696E6720726571756543
:100680007374207061796C6F61643B2074696E795A
:1006900043424F52206572726F7220636F64653AF5
:1006A000202025640A005741524E494E47005265AA
:1006B0006D6F766564202564206F62736572766560
:1006C00072730A00444542554700556E726567696A
:1006D00073746572696E67206F6273657276657296
:1006E0007320666F722072657175657374204D4951
:1006F000442025750A004445425547000A0A436FC5
:10070000415020456E67696E653A20726563656980
:1007100076656420646174616C656E3D2575206644
:10072000726F6D20004445425547005265747261F6
:100730006E736D697474696E672025752028257540
:10074000290A00444542554700666F726D61742C5A
:100750002022496E73756666696369656E74206DE3
:10076000656D6F72793A20496E63726561736520B9
:100770004F435F4D41585F4150505F444154415F8A
:1007800053495A4520746F202220226163636F6DA4
:100790006F646174652061206C617267657220709E
:1007A00061796C6F61645C6E22005741524E494E14
:1007B00047000A25730A41626F72742E0A00494E7F
:1007C000464F004F5054494F4E2074797065202594
:1007D000752C2064656C74612025752C206C656E09
:1007E00020257A750A004445425547004F50544928
:1007F0004F4E20747970652025752C2064656C74CB
:10080000612025752C206C656E20257A752C207052
:10081000617274205B252E2A735D0A00444542559F
:1008200047005354455020257A752F257A75202886
:100830002563290A00444542554700415252415917
:1008400020747970652025752C206C656E20257AC2
:10085000752C2066756C6C205B252E2A735D0A0052
:100860004445425547002D446F6E6520736572699B
:10087000616C697A696E672061742025702D2D2D59
:100880002D0A00444542554700666F726D61742C15
:100890002253697A6531222022205B25755D5C6ECA
:1008A000222C2028756E7369676E656420696E74EA
:1008B00029636F61705F706B742D3E73697A653167
:1008C00000444542554700666F726D61742C225397
:1008D000697A6532222022205B25755D5C6E222CB0
:1008E0002028756E7369676E656420696E7429636C
:1008F0006F61705F706B742D3E73697A653200446E
:100900004542554700666F726D61742C22426C6FD0
:10091000636B3122202220656E636F6465643A2028
:100920003078256C585C6E222C2028756E736967B0
:100930006E6564206C6F6E6729626C6F636B004438
:100940004542554700666F726D61742C22426C6F90
:10095000636B31222022205B256C752573202825AE
:100960007520422F626C6B295D5C6E222C202875ED
:100970006E7369676E6564206C6F6E6729636F6163
:10098000705F706B742D3E626C6F636B315F6E7560
:100990006D2C20636F61705F706B742D3E626C6FA5
:1009A000636B315F6D6F7265203F20222B22203AEE
:1009B0002022222C20636F61705F706B742D3E6269
:1009C0006C6F636B315F73697A65004445425547CC
:1009D00000666F726D61742C22426C6F636B322201
:1009E000202220656E636F6465643A203078256C40
:1009F000585C6E222C2028756E7369676E656420C2
:100A00006C6F6E6729626C6F636B0044454255479B
:100A100000666F726D61742C22426C6F636B3222C0
:100A20002022205B256C7525732028257520422FF8
:100A3000626C6B295D5C6E222C2028756E73696771
:100A40006E6564206C6F6E6729636F61705F706B99
:100A5000742D3E626C6F636B325F6E756D2C20631C
:100A60006F61705F706B742D3E626C6F636B325F91
:100A70006D6F7265203F20222B22203A2022222CEB
:100A800020636F61705F706B742D3E626C6F636B7F
:100A9000325F73697A6500444542554700666F725C
:100AA0006D61742C22416363657074222022205B87
:100AB00025755D5C6E222C2028756E7369676E65E6
:100AC0006420696E7429636F61705F706B742D3E72
:100AD00061636365707400444542554700666F72F8
:100AE0006D61742C225572692D51756572792220C1
:100AF00022205B252E2A735D5C6E222C2028696ED5
:100B00007429636F61705F706B742D3E7572695FDD
:100B100071756572795F6C656E2C20636F61705FB3
:100B2000706B742D3E7572695F71756572790044E2
:100B30004542554700666F726D61742C22436F6E9B
:100B400074656E742D466F726D6174222022205B75
:100B500025755D5C6E222C2028756E7369676E6545
:100B60006420696E7429636F61705F706B742D3ED1
:100B7000636F6E74656E745F666F726D617400444E
:100B8000454255470053657269616C697A65206317
:100B90006F6E74656E7420666F726D61743A202595
:100BA000640A00444542554700666F726D61742CBB
:100BB000225572692D50617468222022205B252EF7
:100BC0002A735D5C6E222C2028696E7429636F6124
:100BD000705F706B742D3E7572695F706174685FD1
:100BE0006C656E2C20636F61705F706B742D3E7549
:100BF00072695F7061746800444542554700666FD2
:100C0000726D61742C225572692D506F727422209E
:100C100022205B25755D5C6E222C2028756E736921
:100C2000676E656420696E7429636F61705F706BB5
:100C3000742D3E7572695F706F7274004445425541
:100C40004700666F726D61742C224F627365727615
:100C500065222022205B25755D5C6E222C20287584
:100C60006E7369676E656420696E7429636F617065
:100C70005F706B742D3E6F627365727665004445DC
:100C800042554700666F726D61742C22455461674E
:100C9000222022202575205B3078253032582530DF
:100CA00032582530325825303258253032582530C8
:100CB000325825303258253032585D5C6E222C2057
:100CC00028756E7369676E656420696E7429636F39
:100CD00061705F706B742D3E657461675F6C656EEB
:100CE0002C20636F61705F706B742D3E657461675B
:100CF0005B305D2C20636F61705F706B742D3E659F
:100D00007461675B315D2C20636F61705F706B7421
:100D10002D3E657461675B325D2C20636F61705F8F
:100D2000706B742D3E657461675B335D2C20636F5F
:100D300061705F706B742D3E657461675B345D2C10
:100D400020636F61705F706B742D3E657461675BCB
:100D5000355D2C20636F61705F706B742D3E657420
:100D600061675B365D2C20636F61705F706B742D03
:100D70003E657461675B375D0044454255470053EB
:100D8000657269616C697A696E67206F7074696FEA
:100D90006E732061742025700A0044454255470057
:100DA00053657269616C697A656420686561646520
:100DB00072206C656E6774682025752065786365A0
:100DC00065647320434F41505F4D41585F48454132
:100DD0004445525F53495A452025750A00574152F0
:100DE0004E494E470044756D70205B307825303297
:100DF000582025303258202530325820253032589E
:100E000020202530325820253032582025303258C5
:100E100020253032585D0A004445425547002D4494
:100E20006F6E6520257520422028686561646572B3
:100E3000206C656E2025752C207061796C6F616463
:100E4000206C656E202575292D0A004445425547C2
:100E500000666F726D61742C225C6E220044454204
:100E6000554700546F6B656E20286C656E202575A4
:100E70002900444542554700446F6E6520736572F2
:100E800069616C697A696E6720656D707479206D2F
:100E90006573736167652061742025702D0A0044B5
:100EA00045425547002D53657269616C697A696ED8
:100EB00067204D494420257520746F2025700A0055
:100EC0004445425547002D73656E64696E67204F37
:100ED0004346206D65737361676520282575292D4C
:100EE0000A00444542554700666F726D61742C20BC
:100EF00022696E73756666696369656E74206D65D7
:100F00006D6F727920746F20616464206E65772044
:100F10006F627365727665725C6E22005741524E45
:100F2000494E4700416464696E67206F6273657261
:100F3000766572202825752920666F72202F25730B
:100F4000205B307825303258253032585D0A004415
:100F50004542554700666F726D61742C20225472B1
:100F6000756E636174696E67206F62736572766512
:100F7000722055524C5C6E22005741524E494E47EA
:100F800000666F726D61742C22636F61705F6F62B7
:100F900073657276655F6E6F746966793A20666F05
:100FA0007263696E6720434F4E206E6F7469666985
:100FB000636174696F6E20746F20636865636B2072
:100FC000666F7220222022636C69656E74206C69E2
:100FD00076656E6573735C6E22004445425547002A
:100FE000666F726D61742C22636F61705F6E6F74D7
:100FF0006966795F6F62736572766572733A206EA7
:101000006F74696679696E67206F62736572766561
:10101000725C6E2200444542554700666F726D61F6
:10102000742C225265736F75726365206973205347
:101030004C4F573B206372656174696E672073651E
:1010400070617261746520726573706F6E73655C38
:101050006E2200444542554700666F726D61742CE4
:1010600022636F61705F6E6F746966795F6F627320
:101070006572766572733A205265736F7572636537
:101080002069676E6F72656420726571756573742F
:101090005C6E2200444542554700666F726D617474
:1010A0002C22636F61705F6E6F746966795F6F6227
:1010B000736572766572733A20497373756520475C
:1010C0004554207265717565737420746F20726564
:1010D000736F757263655C6E22004445425547002C
:1010E000666F726D61742C2022636F61705F6E6F2A
:1010F000746966795F6F62736572766572733A20A0
:101100006F7574206F66206D656D6F727920616CEC
:101110006C6F636174696E67206275666665725C88
:101120006E22005741524E494E4700666F726D6104
:10113000742C2022636F61705F6E6F746966795FD3
:101140006F62736572766572733A206E6F206F629C
:10115000736572766572733B2072657475726E6921
:101160006E675C6E22005741524E494E4700666FD3
:10117000726D61742C2022636F61705F6E6F746991
:1011800066795F6F62736572766572733A206E6F0F
:10119000207265736F757263652070617373656427
:1011A0003B2072657475726E696E675C6E220057C3
:1011B00041524E494E470052656D6F76696E672009
:1011C0006F6273657276657220666F72202F257369
:1011D000205B307825303258253032585D0A004483
:1011E000454255470052656D6F7665642025642041
:1011F0006F62736572766572730A004445425547A3
:1012000000556E7265676973746572696E67206FE9
:10121000627365727665727320666F722072657193
:101220007565737420746F6B656E2030782530326D
:1012300058253032580A00444542554700666F72BF
:101240006D61742C2022696E7375666669636965C9
:101250006E74206D656D6F727920746F2063726596
:10126000617465207472616E73616374696F6E5C22
:101270006E22005741524E494E47004372656174D9
:101280006564206E6577207472616E736163746942
:101290006F6E2025642025640A00444542554700AE
:1012A00052656D6F766564202564206F6273657288
:1012B000766572730A004445425547005B2530321B
:1012C00078253032783A25303278253032783A2510
:1012D000303278253032783A2530327825303278FD
:1012E0003A25303278253032783A25303278253038
:1012F00032783A25303278253032783A25303278D3
:10130000253032785D3A256400494E464F005B2512
:10131000642E25642E25642E25645D3A25640049DB
:101320004E464F00666F726D61742C22556E726569
:10133000676973746572696E67206F627365727630
:1013400065727320666F7220636C69656E742061CC
:10135000743A202200444542554700666F726D6121
:10136000742C202274696D656F75742E2E20736F36
:101370002072656D6F76696E67206F627365727635
:101380006572735C6E22005741524E494E470066AB
:101390006F726D61742C202254696D656F75745C79
:1013A0006E22005741524E494E4700446F75626CA1
:1013B00065642025640A00444542554700496E692A
:1013C0007469616C20696E74657276616C20256445
:1013D0000A004445425547004B656570696E6720B9
:1013E0007472616E73616374696F6E2025750A0093
:1013F00044454255470053656E64696E67207472B8
:10140000616E73616374696F6E2025750A004445CF
:101410004255470046726565696E67207472616E59
:1014200073616374696F6E2025753A2025700A0018
:10143000444542554700666F726D61742C225365B6
:101440006E64696E672041434B20666F722073653E
:1014500070617261746520726573706F6E73655C24
:101460006E2200444542554700666F726D61742CD0
:101470002022696E73756666696369656E74206D96
:10148000656D6F727920746F2073746F7265206E52
:101490006577207265717565737420666F7220734D
:1014A0006570617261746520726573706F6E7365CB
:1014B0005C6E22005741524E494E470057524954E4
:1014C00054454E20257A752042206F70742068653F
:1014D000616465720A004445425547004F505449C3
:1014E0004F4E202575202864656C74612025752C6D
:1014F000206C656E20257A75290A004445425547BF
:1015000000666F726D61742C224F7574626F756E18
:1015100064206E6574776F726B206576656E743AC1
:1015200020756E6963617374206D6573736167659F
:101530005C6E2200444542554700666F726D6174CF
:101540002C22496E626F756E64206E6574776F72BF
:101550006B206576656E743A206465637279707489
:10156000656420726571756573745C6E2200444514
:1015700042554700666F726D61742C22537461721C
:10158000746564206275666665722068616E646C5D
:1015900065722070726F636573735C6E22004445E0
:1015A000425547002272616E64206F626A656374FF
:1015B00020696E697469616C697A6174696F6E2003
:1015C000636F6D706C657465642200494E464F0010
:1015D00072616E64206F626A65637420696E6974FB
:1015E00069616C697A6174696F6E20636F6D706C8C
:1015F0006574656420257300494E464F00666F721E
:101600006D61742C226F635F6D61696E3A20737433
:1016100061636B20696E697469616C697A65645C89
:101620006E22004445425547000A25730A41626F05
:1016300072742E0A00494E464F00666F726D6174D7
:101640002C226F635F696E74726F73706563746967
:101650006F6E3A20496E697469616C697A696E6768
:1016600020696E74726F7370656374696F6E207237
:1016700065736F757263655C6E2200444542554721
:1016800000203A2000203A2000203A2000203A2072
:1016900000203A2000203A2000203A2000203A2062
:1016A00000667265654D656D6F727928293D000091
:1016B0007A5911241FBECFEFD1E2DEBFCDBF00E0CB
:1016C0000CBF1CE0A0E0B2E0E0EFF1EC00E00BBFEB
:1016D00002C007900D92A033B107D9F721E1A0E332
:1016E000BCE001C01D92A830B207E1F71BE0C9E5DC
:1016F000DBE000E006C021970109802FFE010E9477
:101700003B60C835D10780E00807A9F70E94DD5883
:101710000C94C85A0C9400002F923F924F925F9203
:101720006F927F928F929F92AF92BF92CF92DF92F1
:10173000EF92FF920F931F93CF93DF93CDB7DEB756
:10174000C25CD1090FB6F894DEBF0FBECDBFC15445
:10175000DF4F99838883CF5BD040C954DF4F5983D3
:101760004883C75BD040DC018D919C91009771F05C
:10177000883D924031F1C154DF4FA881B981CF5BE0
:10178000D0401D921C9283E00C943F1A80918810E7
:10179000909189109093330C8093320C0E9478477B
:1017A00090933D1080933C1088ED92E0C154DF4F40
:1017B000E881F981CF5BD0409183808381E00C94F4
:1017C0003F1A8091821086130C94D1171092370C17
:1017D0001092360CC954DF4FA881B981C75BD04045
:1017E0005F968C915F978F935E968C918F938AE131
:1017F0008F938CEF96E09F938F931F9289E78F933F
:1018000080E593E09F938F9386E196E09F938F937B
:1018100085E297E09F938F930E943858C954DF4F19
:10182000E881F981C75BD040068CF78DE02DC75465
:10183000DF4FF983E883C95BD040C954DF4FA881EB
:10184000B981C75BD04091962D903C90929788E7E4
:10185000E4ECFFE0DF011D928A95E9F73092C50FB5
:101860002092C40FF101F080F294F694F69473E0A4
:10187000F722F092C60F8081807382958F7090E07E
:101880009093C80F8093C70F80818F70E82E80934C
:10189000CC0F81818093C90F8281938198278927FA
:1018A00098279093CB0F8093CA0F0FB6F894DEBFA2
:1018B0000FBECDBF31E0F31659F000E614E022E888
:1018C00034E04EE852E060E776E083E894E00DC053
:1018D00048E04E1580F407E214E027E834E04EE8D3
:1018E00052E060E776E088E594E00E948A5760E87D
:1018F000E62EF12CD6C44E2D50E081010C5F1F4F17
:10190000B8018DEC9FE00E94105F8091D40F1F9270
:101910008F938091D30F1F928F938091D20F1F923C
:101920008F938091D10F1F928F938091D00F1F9230
:101930008F938091CF0F1F928F938091CE0F1F9224
:101940008F938091CD0F1F928F931F92EF9284EB14
:101950008F9389EB93E09F938F93FF9283EA8F930A
:1019600084E792E09F938F9380E796E09F938F9315
:101970008EEE93E09F938F930E94385888E0E5EDB8
:10198000FFE0DF011D928A95E9F78091CC0FF80105
:10199000E80FF11D0FB6F894DEBF0FBECDBFE12CEE
:1019A000F12CC754DF4F88819981C95BD040820DEB
:1019B000931DC554DF4F99838883CB5BD04044E7A8
:1019C000C42E42E0D42E50E7652E56E0752EC55445
:1019D000DF4FA881B981CB5BD040EA17FB0708F045
:1019E00052C42081822F807F803F31F58F010F5FAD
:1019F0001F4F10933B1000933A10C80182199309AE
:101A0000C754DF4FA881B981C95BD040A81BB90B6F
:101A1000CD018130B4E09B0710F080E094E090931A
:101A20003910809338108091381090913910F80156
:101A3000E80FF91F108227C4322F32953F702F70A4
:101A40003D3039F4818190E00D968F010E5F1F4F7C
:101A500015C0832F90E03E3021F08F010F5F1F4FA4
:101A60000DC0818190E0582F4427828190E0835FF0
:101A70009E4F840F951F8F010D5F1F4F2D3049F42E
:101A8000F80121918F0130E02901FDE04F0E511C3A
:101A900013C0422E512C2E3079F4D8014C9150E0D5
:101AA000542F442711962C9130E0235F3E4F2A019A
:101AB000420E531E0E5F1F4FE80EF91EBDE3EB16DC
:101AC000F104A8F55F924F929F938F93FF92EF924C
:101AD0008BE28F93E3E9F3E0FF93EF9381E08F9341
:101AE00083EE8F93DF92CF927F926F9283EB93E09E
:101AF0009F938F930E943858F701B3E0F695E795CE
:101B0000BA95E1F7EC53F04FC7018770992721E0B0
:101B100030E002C0220F331F8A95E2F7C901918994
:101B2000892B818B0FB6F894DEBF0FBECDBF9FE02F
:101B3000E916F10409F4C7C108F041C0B7E0EB169B
:101B4000F10409F44FC158F5F4E0EF16F10409F47B
:101B5000D0C026E0E216F10409F064C3B201C80166
:101B60000E94AA38609306107093071080930810A3
:101B7000909309109F938F937F936F9381E28F933C
:101B800083EC92E09F938F9382E08F9388EB8F9307
:101B9000DF92CF927F926F9282ED92E0E3C23CE0BF
:101BA000E316F10409F453C04EE0E416F10409F41D
:101BB0007FC08BE0E816F10409F034C332C19CE128
:101BC000E916F10409F4ACC280F4B7E1EB16F104B4
:101BD00009F4CDC1EBE1EE16F10409F430C2F1E1F4
:101BE000EF16F10409F01EC3CCC021E0E21628E094
:101BF000F20609F4BCC235E0E31638E0F30609F456
:101C0000B6C24CE3E416F10409F00CC3B201C801FA
:101C10000E94AA3860932F10709330108093311077
:101C2000909332109F938F937F936F938FE18F9355
:101C30008BE592E09F938F9382E08F9382EF8F9357
:101C4000DF92CF927F926F9288E692E08BC2B201D0
:101C5000C8010E94AA386093DD0F7093DE0F7F9356
:101C60006F9389E18F9388E793E09F938F9381E04F
:101C70008F9381EF8F93DF92CF927F926F928DE857
:101C800093E09F938F930E9438588091DD0F90913D
:101C9000DE0F0FB6F894DEBF0FBECDBF8031B7E2C6
:101CA0009B0709F4ECC2CC9709F4E9C20C941C1808
:101CB000B201C8010E94AA386093DF0F7093E00F51
:101CC0008093E10F9093E20F9F938F937F936F9395
:101CD00081E28F9383E693E09F938F9381E08F93CC
:101CE0008EEF8F93DF92CF927F926F9282E793E095
:101CF00039C2F9E04F16510410F4B42C02C0A8E028
:101D0000BA2EB092E30F4B2D50E0B80184EE9FE065
:101D10000E94105F8091EB0F1F928F938091EA0FCA
:101D20001F928F938091E90F1F928F938091E80FFC
:101D30001F928F938091E70F1F928F938091E60FF0
:101D40001F928F938091E50F1F928F938091E40FE4
:101D50001F928F931F92BF928BEA8F938FE293E033
:101D60009F938F9382E08F938DE08F93DF92CF923A
:101D70007F926F928DE593E09F938F930E943858E6
:101D8000C9C1B201C8010E94AA3860930A107093B9
:101D90000B107F936F9381E18F938CE193E09F937E
:101DA0008F9382E08F938BE18F93DF92CF927F921C
:101DB0006F9289E293E09F938F930E9438588091AD
:101DC0000A1090910B100FB6F894DEBF0FBECDBF76
:101DD0008031B7E29B0709F452C2CC9709F44FC295
:101DE0000C942018B201C8010E94AA386093FC0F1D
:101DF0007093FD0F7F936F9383E18F9387E093E060
:101E00009F938F9382E08F9381E78F93DF92CF929E
:101E10007F926F9286E193E09F938F930E94385850
:101E200079C18091021090910310009739F12091AF
:101E3000041030910510F901E80FF91F2FE22083FB
:101E4000809102109091031001969093031080935B
:101E500002102091041030910510A201B801820FE8
:101E6000931F0E94195F8091021090910310840DBE
:101E7000951D909303108093021008C010930510D5
:101E800000930410509203104092021080910510AC
:101E90008F93809104108F93809103108F93809182
:101EA00002108F9380E38F9380EF92E09F938F9344
:101EB00082E08F9380E88F93DF92CF927F926F9230
:101EC00081E093E04FC180913310909134100097DE
:101ED00039F12091351030913610F901E80FF91FD2
:101EE00026E22083809133109091341001969093D4
:101EF0003410809333102091351030913610A201A8
:101F0000B801820F931F0E94195F80913310909146
:101F10003410840D951D909334108093331008C0B5
:101F200010933610009335105092341040923310B5
:101F3000809136108F93809135108F93809134105B
:101F40008F93809133108F9382E38F9388ED92E08B
:101F50009F938F9382E08F938EE88F93DF92CF923F
:101F60007F926F92EAEEF2E0FF93EF93FDC0B20131
:101F7000C8010E94AA384B015C01B8E08B22992469
:101F8000AA24BB24E3E0B694A79497948794EA9597
:101F9000D1F7E82D80921910AB014770552720E149
:101FA00030E0042E02C0220F331F0A94E2F7309370
:101FB0001B1020931A104B015C01F0EF8F2204C01C
:101FC000880C991CAA1CBB1C4A95D2F780921C1045
:101FD00090921D10A0921E10B0921F10DC01CB0138
:101FE000F4E0B695A79597958795FA95D1F78093E4
:101FF000151090931610A0931710B0931810EE239D
:1020000019F044E156E002C04FE25CE03F932F93A9
:102010005F934F93BF93AF939F938F938DE58F9370
:1020200082EA92E09F938F9382E08F938AEC8F9362
:10203000DF92CF927F926F928DEB92E067C0B201F8
:10204000C8010E94AA384B015C0138E08322992420
:10205000AA24BB2443E0B694A794979487944A9506
:10206000D1F7E82D80922410AB014770552720E16D
:1020700030E0042E02C0220F331F0A94E2F730939F
:102080002610209325104B015C01A0EF8A2204C08A
:10209000880C991CAA1CBB1C4A95D2F78092271069
:1020A00090922810A0922910B0922A10DC01CB0146
:1020B00054E0B695A795979587955A95D1F7809353
:1020C000201090932110A0932210B0932310EE23A0
:1020D00019F044E156E002C04FE25CE03F932F93D9
:1020E0005F934F93BF93AF939F938F938DE58F93A0
:1020F00081E892E09F938F9382E08F938CED8F9392
:10210000DF92CF927F926F928CE992E09F938F93B0
:102110000E9438580FB6F894DEBF0FBECDBFAFC0D7
:10212000B201C8010E94AA3860932B1070932C1042
:1021300080932D1090932E109F938F937F936F9386
:102140008FE18F932EE632E03F932F9382E08F93BF
:1021500087EE8F93DF92CF927F926F928BE792E020
:102160009F9301C09F938F930E943858D3CFB201A1
:10217000C8010E94AA384B015C01CF53DF4F68832E
:10218000C15CD040CE53DF4F9882C25CD0409F925A
:102190006F9338E03F9380E392E09F938F9382E0C8
:1021A0008F938FEF8F93DF92CF927F926F9285E51F
:1021B00092E09F938F930E943858C4018F7B0FB693
:1021C000F894DEBF0FBECDBF8115984009F457C00B
:1021D000CE53DF4F2881C25CD0402F93CF53DF4FC7
:1021E0003881C15CD0403F9348E04F9380E192E05A
:1021F0009F938F9383E08F9387E08F9384E792E0A0
:102200009F938F93E0E7F6E0FF93EF9388E292E0ED
:102210009F938F930E9438580FB6F894DEBF0FBE7D
:10222000CDBF0AC7FF92EF928EE08F93ACEFB1E083
:10223000BF93AF9383E08F9383E18F93DF92CF922D
:102240007F926F922AE032E03F932F930E9438589A
:102250000FB6F894DEBF0FBECDBFE0FE10C00CEC91
:1022600011E02AE133E044E752E060E776E084EFF2
:1022700091E00E948A5732E8E32EF12CE4C6F8017F
:10228000E40DF51DA4CB06EA11E020E233E044E7BB
:1022900052E060E776E086EC91E00E948A57E12CFC
:1022A000F12CF092370CE092360CEF2809F008C6BA
:1022B000F090D80FE090D70F8091CA0F9091CB0F7C
:1022C0000091300C1091310C0115110559F1F801F4
:1022D000228133818217930711F51F930F939F93E8
:1022E0008F9382E18F938BE894E09F938F931F925B
:1022F00084EF8F9381EA92E09F938F9388EC96E02E
:102300009F938F938DEA94E09F938F930E94385808
:102310000FB6F894DEBF0FBECDBFC80105C0008167
:102320001181D2CF80E090E09093280F8093270F07
:10233000009711F00E94003A1092280F1092270F78
:102340002091C90F21500091CA0F1091CB0F80919D
:10235000C70F9091C80F243008F004C5892BA9F449
:1023600088E7ECE4FFE0DF011D928A95E9F782E05F
:1023700090E09093500F80934F0F85E48093510F1E
:102380001093530F0093520F57C0C954DF4FE88189
:10239000F981C75BD0402481E2E3FDE0A8E3BCE023
:1023A000819191910817190781F48C9128130DC020
:1023B00003EB14E029E530E04DEB52E066E176E016
:1023C00089ED94E00E948A57E2C511963FE0E6321B
:1023D000F30731F78091260F90E0FC01EE0FFF1F0D
:1023E000EE5CF24F11830083FC01E85CF34F208325
:1023F00001966AEF70E00E9408608093260F80913A
:102400003C1090913D10019690933D1080933C10AC
:1024100028E7ECE4FFE0DF011D922A95E9F721E0CF
:1024200030E03093500F20934F0F25E42093510F4D
:102430009093530F8093520FC954DF4F48805980B7
:10244000C75BD04042E0440E511CB201C8010E945B
:102450003F3A9093280F8093270F009709F430C5D7
:10246000F3FC2EC5E7FC2CC5DC015996ED91FC91DF
:102470005A9781A192A1875B9F4F20E038E0C95411
:10248000DF4FE881F981C75BD040358F248F2091E1
:10249000D70F21FF0BC020910A1030910B102C3365
:1024A000310521F420E438E0358F248F2090C90FC6
:1024B000312CCB55DF4F99838883C55AD04080E0BB
:1024C00094E0C955DF4F99838883C75AD040C555DA
:1024D000DF4F19821882CB5AD040C755DF4F19827F
:1024E0001882C95AD040FE01EF54FF4F118210826A
:1024F00025EA30E02C0F3D1F33832283C556DF4F82
:10250000F983E883CB59D040C756DF4F1982188230
:10251000C959D040CB56DF4F19821882C559D040D7
:10252000C956DF4F19821882C759D040CD56DF4FA8
:1025300019821882C359D040CF56DF4F5982488242
:10254000C159D0408091D60F83FF15C0A0910410CF
:10255000B0910510C354DF4FB983A883CD5BD04041
:10256000E0910210F0910310C754DF4FF983E88324
:10257000C95BD04006C0C754DF4F19821882C95BBF
:10258000D04087FF8BC0809033109090341081141E
:10259000910409F483C06090351070903610CB56CA
:1025A000DF4F79826882C559D040C956DF4F998282
:1025B0008882C759D040A12CB12CA814B904D4F4F6
:1025C000CC24C394D12C9E0127583F4F79018E0112
:1025D00003561F4F245F3F4FAE014F5F5F4FB40163
:1025E0006A197B09C3018A0D9B1D0E941A288C0160
:1025F000019619F48FEF9FEF1AC0CB57DF4F8881F8
:102600009981C558D040029779F469817A8142E076
:1026100050E088E297E00E94425F892B29F4EB9614
:102620008EAD9FADEB9703C0A00EB11EC6CF8F3FFE
:102630004FEF940799F1C356DF4FE880F980CD59E9
:10264000D0408F30910559F44FE050E06BE277E0D5
:10265000C7010E945A5F892B09F4E5C61FC0893063
:10266000910569F449E050E06BE377E0C7010E940F
:102670005A5F892B09F4F4C400E010E0F3C4089712
:1026800069F448E050E065E477E0C7010E945A5FD2
:10269000892B09F4F3C400E010E0F2C400E010E07C
:1026A00080913A1090913B10009729F0609038107B
:1026B0007090391002C0612C712CFE01E356FF4F5F
:1026C00020E130E03183208313821282158214824C
:1026D00017821682F093350CE093340C161417040D
:1026E0000CF0EEC47E01A5EBEA0EF11CF70111829D
:1026F0001082389724E0DF011D922A95E9F79C01AA
:10270000260D371D31832083CB57DF4FF983E883B4
:10271000C558D040C957DF4F99838883C758D040E8
:1027200081E090E0A0E0B0E0C757DF4F8883998355
:10273000AA83BB83C958D040CE018B579F4F0E94BC
:10274000CB42F70120813181822B932B91838083AF
:10275000C157DF4F8881CF58D040803A09F048C038
:10276000BE0167587F4FCE018B579F4F0E94EC3EB2
:10277000D7012D913C911197822B932B8D939C9394
:10278000C756DF4F19821882C959D04091E9C92E26
:10279000D12CCC0EDD1EB8E0CB0ED11C5701CD578D
:1027A000DF4F8881C358D0408F3F09F449C0A5014D
:1027B000B601CE0187589F4F0E947E1DF501808192
:1027C0009181009709F0BAC0CE0187589F4F0E94AF
:1027D0008240D5012D913C911197822B932B8D93A3
:1027E0009C93F601C080D180F2E0CF0ED11CD7CFF0
:1027F000803831F5C756DF4F19821882C959D04049
:10280000FE0131966F01BF01CE018B579F4F0E9491
:10281000EC3ED7012D913C911197822B932B8D93F8
:102820009C93E1E9F0E0EC0FFD1F3896C554DF4FB3
:10283000F983E883CB5BD04047018B858F3F21F440
:10284000D701ED90FC907BC00E94721DC554DF4FF4
:10285000A881B981CB5BD0408D939C93009709F4FC
:1028600069C026E030E0FC01318320835C013AE05E
:10287000A30EB11CBE0167587F4FC6010E94EC3EFB
:10288000D7012D913C911197822B932B8D939C9383
:10289000CD57DF4F8881C358D0408F3F31F1A4011D
:1028A000B501CE0187589F4F0E947E1DF4018081A3
:1028B0009181009709F042C0CE0187589F4F0E9436
:1028C0008240D4012D913C911197822B932B8D93B3
:1028D0009C93D501ED91FC91119713821282AD90DA
:1028E000BC90B2E0AB0EB11CD3CFC554DF4FA88172
:1028F000B981CB5BD040ED91FC911197138212828C
:102900008D919C91FC013296C554DF4FF983E88389
:10291000CB5BD040D7018D919C91009779F4C60193
:102920000E948240F70120813181822B932B918379
:10293000808383CFE12C80E8F82E01C07C01E11474
:10294000F10409F4BDC3FF92EF928CE08F9387E608
:1029500096E09F938F9382E08F938AEB8F9383E12E
:1029600093E09F938F938EE497E09F938F9386EAF3
:1029700096E09F938F930E943858DD24D3940FB62E
:10298000F894DEBF0FBECDBF31E0E316F30609F0C9
:10299000D12C11E000E0CC24C394E12CF12C4FC0E9
:1029A000BFEFCB1ADB0AE6E0CE16D10409F4A3C3CD
:1029B000B501C6010E94CD487C01D7011C968D91BE
:1029C0009C911D97009709F493C301978816990667
:1029D00039F7F70186859785C754DF4F48815981BC
:1029E000C95BD040C354DF4F68817981CD5BD04053
:1029F00001960E945A5F892B99F6CD56DF4FF982D6
:102A0000E882C359D040E114F10409F474C30115FC
:102A1000110529F4D70158960D911C915997F7018A
:102A2000868997898095909580239123892B09F435
:102A3000B9C301E011E0672869F0C02ED12CC75658
:102A4000DF4F88819981C959D0400E94391D802F5C
:102A50000C2D02C0802FD12C8823A9F00BE316E0A7
:102A600025E333E043E153E06EE477E08FE596E061
:102A70000E948A57C755DF4F19821882C95AD04021
:102A8000809168105CC0DD20A9F004EF15E029E317
:102A900033E043E153E06EE477E083E396E00E94A5
:102AA0008A57C755DF4F19821882C95AD040809182
:102AB0006C1045C00023A9F00EEC15E02DE333E0C7
:102AC00043E153E06EE477E08CEE95E00E948A5794
:102AD000C755DF4F19821882C95AD04080916510BE
:102AE0002EC0E114F104A9F40CE915E022E433E06E
:102AF00043E153E06EE477E086EC95E00E948A576C
:102B0000C755DF4F19821882C95AD0408091691089
:102B100016C011111CC00CE615E027E433E043E1B8
:102B200053E06EE477E084E995E00E948A57C75548
:102B3000DF4F19821882C95AD04080916A1090E004
:102B4000C555DF4F99838883CB5AD04004C080910C
:102B5000D50F86FDA6C312E0812E912CA12CB12C9D
:102B6000CF54DF4F68817981C15BD0406115710519
:102B700099F09401A20184EC9FE00E94BE3881305C
:102B8000910509F0EAC0CF54DF4FE881F981C15BBC
:102B9000D04095838483E1C0C555DF4F28813981BA
:102BA000CB5AD0402531310539F482EC90E0909336
:102BB000370C8093360CD1C0E114F10409F475C0D0
:102BC000F2E02F1A310842E02416310408F06DC0FB
:102BD0008091651090E0281739070CF066C084E0FA
:102BE00092E00E9416468C01009709F452C0DC0165
:102BF0005996FC92EE9258978FEC96E257969C93DA
:102C00008E935697E0908810F090891082E592E0BC
:102C100090938910809388101A961C921A971B968D
:102C20001C921B971C961C921C971D961C921D971C
:102C30001E961C921E971F961C921F9750961C92D0
:102C4000509751961C92519712961C921297139678
:102C50001C92139714961C92149715961C92159714
:102C600016961C92169717961C92179718961C92F8
:102C7000189719961C92C80102960E946E46F0920F
:102C80008910E0928810B80188E590E10E946647BB
:102C90000CC00FED14E020E831E040ED52E06EE4AE
:102CA00077E08BE195E00E948A57C755DF4F888116
:102CB0009981C95AD040009769F1CB55DF4F2881DF
:102CC0003981C55AD0403093C30F2093C20F813051
:102CD000B4E09B0710F080E094E09093C10F8093E4
:102CE000C00FC954DF4FE881F981C75BD040248D04
:102CF000358D80915E0F2034384019F42CE330E09C
:102D000002C020E137E23093660F2093650F8061A7
:102D100080935E0FC555DF4F88819981CB5AD04093
:102D200020916C1030E08217930789F440E054E062
:102D300060E070E04093B70F5093B80F6093B90F05
:102D40007093BA0F2091640F20612093640F8F3F1E
:102D5000910509F010F48093510F8091510F81116A
:102D6000C4C0AEC00097D9F5C954DF4FC880D98020
:102D7000C75BD04022E0C20ED11CCE0101967C017F
:102D800088E7D7011D928A95E9F782E090E09D835C
:102D90008C8318870F830E94334E8C01892B09F492
:102DA0008FC08CE1F601D801129601900D928A95A0
:102DB000E1F7F80161A172A1C7010E94CD2BD801F2
:102DC0005F969C938E935E97C8010E948A2BF801B0
:102DD00080A1811175C0C8010E94C44D71C00397C4
:102DE00009F06EC0C954DF4FC880D980C75BD0409E
:102DF000F2E0CF0ED11C1F930F9384E08F938AECE7
:102E000096E09F938F9381E08F9386E08F9384E386
:102E100093E09F938F938CE997E09F938F9386EF36
:102E200096E09F938F930E943858E090320FF09075
:102E3000330F0FB6F894DEBF0FBECDBFE114F1041F
:102E4000F9F0B601C70148960E949728892BA1F492
:102E5000D701DD968D919C91DE970817190761F4D3
:102E60001296ED91FC91139786A5815086A7C70114
:102E70000E94A73A81E005C0F701E080F180DECF33
:102E800080E01F928F9388E08F938EEA96E09F9365
:102E90008F9381E08F9388E18F9384E393E09F93F6
:102EA0008F938CE997E09F938F9384EC96E09F93A8
:102EB0008F930E9438580FB6F894DEBF0FBECDBF77
:102EC0008091CA0F9091CB0F28E7ECE4FFE0DF017F
:102ED0001D922A95E9F723E030E03093500F2093BC
:102EE0004F0F9093530F8093520F8091360C909117
:102EF000370C009709F042C00091270F1091280F5E
:102F00000115110509F443C080914F0F9091500FA6
:102F10000397A9F04091CC0F442389F08091C90F09
:102F20008150843060F4493008F048E04093540FF9
:102F300050E06DEC7FE085E59FE00E94105FF801B6
:102F4000018D128DD80191966D917C9192978CE4B0
:102F50009FE00E94CD2BF801978F868F8091270FDD
:102F60009091280FDC015996ED91FC915A97268D8E
:102F7000378D232B51F00E94DD3A09C0823C910528
:102F800031F48091270F9091280F0E94003AC95484
:102F9000DF4F88819981C75BD0400E94C44D0C945B
:102FA000D40B683811F00C94D40B0091300C1091B4
:102FB000310C6BE1762E7BE2E72E77E0F72E66246C
:102FC0006394ECE05E2EFDE5CF2EF3E0DF2EA8EC5F
:102FD000AA2EA6E0BA2EB3E48B2EB7E09B2E0115E5
:102FE000110511F40C94D40BF801308041808689CE
:102FF0009789892BF1F4808D8F5F808F1F928F933B
:1030000083818F9382818F937F92FF92EF926F9251
:103010005F92DF92CF92BF92AF929F928F920E9467
:103020003858C8010E94DD3A0FB6F894DEBF0FBED3
:10303000CDBF032D142DD3CF5FE8E52EF12C03C0B7
:1030400046E8E42EF12C04EF13E020E934E04EE8EA
:1030500052E060E776E081E294E00E948A5721C95D
:1030600004E010E049E050E067EF77E0C7010E941C
:103070005A5F892B09F014CB006212CB08E010E0F4
:1030800048E050E061E078E0C7010E945A5F892B78
:1030900009F4006148E050E06AE078E0C7010E946E
:1030A0005A5F892B09F4006448E050E063E178E05E
:1030B000C7010E945A5F892B09F0F2CA0068F0CA62
:1030C000C954DF4FE881F981C75BD040A480B58047
:1030D000E090AA10F090AB10C12CD12CC754DF4F58
:1030E00088809980C95BD040FFEF8F1A9F0A65CC1A
:1030F00080E090E06BCC81E0C354DF4FA881B981C0
:10310000CD5BD0409C919F3209F480E0C82ED12C39
:10311000E0905C10F0905D10C754DF4F888099807C
:10312000C95BD0408C0C9D1C0EC0D7011C968D91A4
:103130009C911D97009759F001978816990651F0B8
:10314000F701E080F180E114F10479F720C080E01C
:1031500090E0F3CFF701668577856C0D7D1DC75430
:10316000DF4F48815981C95BD040C354DF4F88810C
:103170009981CD5BD0400E945A5F892B09F7D70116
:1031800012968D919C911397A816B906C9F6CD5643
:10319000DF4FF982E882C359D040E114F10409F409
:1031A00039C135CC0031110531F00038110519F065
:1031B0000430110531F4F1E02F16310409F022C179
:1031C00035C1C955DF4F88819981C75AD040CB5549
:1031D000DF4F28813981C55AD04010924910109292
:1031E0004810309347102093461030933F1020939F
:1031F0003E10820F931F909341108093401082E005
:1032000090E09093431080934210109245101092DA
:10321000441021E02216310461F4D7015C96ED914F
:10322000FC915D973097D1F15E964D915C915F97DF
:103230002FC0B2E02B16310459F4D70104A0F5A138
:10324000E02D309759F196964D915C91979720C05B
:10325000B3E02B16310461F4D70100A0F1A1E02DF9
:10326000309709F4D9C092964D915C91939710C014
:10327000B4E02B16310409F0CFC0D70100A4F1A5AA
:10328000E02D309709F4C8C09A964D915C919B97B8
:10329000B801CE018F569F4F1995BCC000E010E0D9
:1032A000CACB8090061090900710A0900810B090A4
:1032B0000910F701828D81FF53CC81149104A10480
:1032C000B10409F06BC0B201C7010E943233892BEF
:1032D00009F046CCD7015A968C9186FF85C0C7016C
:1032E0000E940628892B09F07FC084E092E00E94AA
:1032F00016468C010097A9F403E215E028EE31E0B0
:1033000045EF52E06EE477E084E695E00E948A574C
:103310004091CC0F50E06DEC7FE0C2010E942D3D4A
:103320001FCCFC01F18EE08E85EC96E2978B868BAC
:10333000C0908810D090891082E592E09093891017
:1033400080938810D7019C964D915C919D9788EE53
:1033500093E0489F9001499F300D589F300D1124F4
:10336000228733871486158616861786108A118A57
:103370001282138214821582168217821086118699
:10338000C80102960E946E46D0928910C0928810A1
:10339000B8018AE590E10E94664726C0B1E08B162D
:1033A0009104A104B10409F0DBCBB201C7010E9472
:1033B0003233181619060CF0D3CBF701828D86FF35
:1033C000CFCBC7010E9406288C01009709F4C8CB17
:1033D00002960E941D46B8018AE590E10E9453477B
:1033E000C8010E943F5ABCCB10928E0F10928F0FD3
:1033F0001092900F1092910F80915D0F80648093D6
:103400005D0FAECB672809F429CB11E001E0CC2495
:10341000C39414CB11E001C010E0672809F461CB1C
:1034200000E0C12C0BCB02E010E03AC9C955DF4FD8
:1034300088819981C75AD040CB55DF4F2881398187
:10344000C55AD0401092491010924810309347103E
:103450002093461030933F1020933E10820F931F0D
:10346000909341108093401082E090E0909343103D
:10347000809342101092451010924410CECECE533D
:10348000DF4F0FB6F894DEBF0FBECDBFDF91CF91F7
:103490001F910F91FF90EF90DF90CF90BF90AF9072
:1034A0009F908F907F906F905F904F903F902F9064
:1034B00008950895CF93FC01848D958D892B79F41F
:1034C00080A191A1892B59F484A195A1C1E0892BF8
:1034D00039F480A591A5892B19F4C0E001C0C1E0A1
:1034E000828D86FF04C084A595A5892B41F0CC234D
:1034F00039F0BF018CE590E10E94664701C0C0E051
:103500008C2FCF9108950F931F93CF93DF93CDB757
:10351000DEB728970FB6F894DEBF0FBECDBF8B0184
:10352000FC0122852B3F11F00E94F15EFC012385F6
:1035300020FFFACF0E94984029833A834B835C8313
:103540006D837E838F83988784E0FE013196D80156
:1035500001900D928A95E1F780E090E028960FB6F1
:10356000F894DEBF0FBECDBFDF91CF911F910F91B9
:1035700008958F929F92AF92BF92CF92DF92EF9277
:10358000FF920F931F93CF93DF93EC018B018A85FA
:1035900081110E94F15E8B8580FF05C0CE010E94E3
:1035A0009840490102C088849984F8019182808200
:1035B0008B8581FF04C0809490949182808280E00A
:1035C00090E0DF91CF911F910F91FF90EF90DF90EE
:1035D000CF90BF90AF909F908F900895CF93DF933F
:1035E0000E94FF50EC010E94C050CE010E94B950D1
:1035F000CE010E94B350CE010E94AC50CE010E9479
:10360000A15048ED55E261E070E0CE010E9481508A
:103610004DE251E262E070E0CE010E9481504FE63F
:1036200051E263E070E0CE010E948150CE01DF9153
:10363000CF910C945A1ACF930E944D53C82F0E94D9
:103640005F518C2BCF9108959F938F9384E08F933C
:1036500082EB97E09F938F931F928CE18F9387E883
:1036600093E09F938F938CE198E09F938F938EEBE1
:1036700097E09F938F930E9438580E94F15E2F929B
:103680003F924F925F926F927F928F929F92AF92F2
:10369000BF92CF92DF92EF92FF920F931F93CF933F
:1036A000DF930E944446322E432E542E652E762EF2
:1036B000872E982E092F2224239480914C1081115B
:1036C0000E94F745C0907410D0907510E09076106D
:1036D000F0907710C114D104E104F10409F474C02E
:1036E000409178105091791060917A1070917B1010
:1036F00025E0249FC001259F900D1124E0917C10AE
:10370000F0917D10E80FF91F108110932F0FA18009
:10371000B280B0922E0FA0922D0FC381D481CB0125
:10372000BA016F5F7F4F8F4F9F4F209130023091D2
:10373000310240913202509133020E94CE5D60937B
:1037400078107093791080937A1090937B1081E0B9
:10375000C81AD108E108F108C0927410D09275100F
:10376000E0927610F0927710209731F580918A10D0
:1037700090918B1090932C0F80932B0F80912B0F97
:1037800090912C0F892B01F180914C1081110E9496
:10379000F74540912D0F50912E0F60912F0F809182
:1037A0002B0F90912C0F0E948045E0912B0FF091F0
:1037B0002C0F80819181DECF113809F42886A50174
:1037C000612FCE010E94804520914C108091741091
:1037D00090917510820F911D892B59F00E944446DB
:1037E000322E432E542E652E762E872E982E092F9C
:1037F00064CF232D342D452D562D672D782D892D01
:10380000902FDF91CF911F910F91FF90EF90DF905C
:10381000CF90BF90AF909F908F907F906F905F9070
:103820004F903F902F900895EF92FF920F931F9328
:10383000CF93DF93DC0112964D915C911397440F67
:10384000452F441F550B5195E0E0F0E020E030E0BB
:103850002417350789F114968D919C911597EC01E9
:10386000CE0FDF1FC881E058FF4FC11122C0EB010E
:1038700009900020E9F721978E01061B170B0038ED
:103880001105D0F47D01E901D695DC2FCC27D79521
:10389000C795A8018C0F9D1F0E94105F98012C0FE7
:1038A0003D1FF701C481D581C20FD31F188281E06B
:1038B00004C02F5F3F4FCCCF80E0DF91CF911F91AD
:1038C0000F91FF90EF900895CF93DF93EC018C81DF
:1038D0009D810E943F5A1B821A82198218821D8282
:1038E0001C82DF91CF9108950F931F93CF93DF93A5
:1038F000EC018B0180912A0F811103C081E080933C
:103900002A0F4130510561F048F04230510589F4E9
:10391000C801880F991F880F991F05C0C80103C0EF
:10392000C801880F991F0E94A7599D838C831B8310
:103930000A83DF91CF911F910F9108950F931F93E9
:10394000CF93DF938C01EB017695762F66277795E1
:10395000679540E050E0C8010E94741C20E030E010
:1039600080E090E08C179D0764F4D8011496ED91E7
:10397000FC911597E20FF31F1082019620583F4FDC
:10398000F1CFDF91CF911F910F9108958F929F9268
:10399000AF92BF92CF92DF92EF92FF920F931F935D
:1039A000CF93DF937C015B016A01EB01099000205A
:1039B000E9F72197C61BD70BFA0101900020E9F720
:1039C00031978F01041B150B4E01800E911EB4011F
:1039D0006F5F7F4F40E050E00E94741CAE01B50164
:1039E000D70114968D919C9115970E94105FF70155
:1039F00084819581A801B6018C0F9D1F0E94105FE4
:103A0000D7011496ED91FC911597E80DF91D1082E0
:103A1000DF91CF911F910F91FF90EF90DF90CF90AA
:103A2000BF90AF909F908F900895EF92FF920F9369
:103A30001F93CF93DF938C017B01EA01BA016F5F83
:103A40007F4F40E050E00E94741CAE01B701F801C6
:103A5000848195810E94105FF80184819581C80F4F
:103A6000D91F1882DF91CF911F910F91FF90EF9096
:103A70000895CF93DF93009791F1EC018A819B81A8
:103A80000E94391DE881F9813497EB30F105D0F4BB
:103A90008827EE58FF4F8F4F0C943B608E859F8593
:103AA0000E943F5A1D861C861B861A861F861E860C
:103AB00009C0CE010A960E94641C04C08A859B85B9
:103AC0000E94391D8E819F81892B21F0CE010496A1
:103AD0000E94641CCE01DF91CF910C943F5ADF917C
:103AE000CF9108958091340C9091350C0E94164628
:103AF000009719F0FC011782168208952F923F92C9
:103B00004F925F926F927F928F929F92AF92BF92ED
:103B1000CF92DF92EF92FF920F931F93CF93DF9399
:103B2000CDB7DEB76A970FB6F894DEBF0FBECDBF34
:103B30006C015B018A010E94721D7C01D5018D938D
:103B40009C93009721F480E090E8F8019FC0DC018D
:103B500013961C921E9212971B961C921E921A97F5
:103B6000BE01675E7F4FC6010E94E03EF8012081E2
:103B70003181822B932B91838083698D7A8D6F5F46
:103B80007F4F7A8F698F40E050E0C70104960E9412
:103B9000741CD70118966D917C911997F601828556
:103BA000803611F00E94F15E20E030E0AE01475E09
:103BB0005F4FC6010E94B33DD8012D913C911197F2
:103BC000822B932B8D939C93892B09F0CBC2C6013A
:103BD0000E948240F80120813181282B392B3183CA
:103BE0002083D6011A969C91903809F4ECC0C0F459
:103BF000903409F44EC0903609F481C09111B2C2DC
:103C0000B701665F7F4FC6010E94B91AF801208193
:103C10003181822B932B9183808381E090E06DC072
:103C2000953F81F09B3F09F1903A09F09BC2570103
:103C3000FAE0AF0EB11CBE016F5F7F4FC6010E945C
:103C4000EC3EAEC081E0F60140855185452B09F47C
:103C500080E0D7011A968C931A97F801318320835C
:103C600083E090E08D939C937DC2B701665F7F4FA8
:103C7000C6010E94831AD8012D913C911197822B85
:103C8000932B8D939C9382E090E0F7019183808346
:103C900069C2BE01675E7F4FC6010E94E03ED80147
:103CA0002D913C911197822B932B8D939C93698D31
:103CB0007A8D6F5F7F4F7A8F698F40E050E0C70148
:103CC0000A960E94741CF70166857785D6011A96BC
:103CD0008C91803409F066CF20E030E0AE01475E81
:103CE0005F4FC6010E94B33DF80120813181822BD4
:103CF000932B9183808384E090E0D701B3CFBE0102
:103D0000675E7F4FC6010E94E03EF801208131814D
:103D1000822B932B91838083698D7A8D6F5F7F4F88
:103D20007A8F698F40E050E0C7010A960E94741CA8
:103D3000D7011E966D917C911F97F6018285803682
:103D400009F030CF20E030E0AE01475E5F4FC601A2
:103D50000E94B33DD8012D913C911197822B932B5A
:103D60008D939C9385E090E090CFA801B501CE01A2
:103D700001960E947E1DD501ED91FC911197138251
:103D80001282AD90BC90B2E0AB0EB11CF801808104
:103D90009181892B09F0E6C1CE0101960E948240F3
:103DA000D8012D913C911197822B932B8D939C934D
:103DB0008D819E81AF81B885892B8A2B8B2BA9F6AB
:103DC00086E090E062CFBE01635F7F4FC6010E9434
:103DD000EC3ED8012D913C911197822B932B8D9322
:103DE0009C931A8E198EF6018285803809F0DACEFE
:103DF000838582FD0BC080FF05C0C6010E949840EC
:103E0000390102C0608471847A8E698E898D9A8DA1
:103E1000892B21F58CE0FE013D96DE011196019083
:103E20000D928A95E1F78D819E81AF81B885892BAE
:103E30008A2B8B2B99F0898D9A8D01969A8F898F79
:103E4000F80180819181892B09F08CC1CE01019606
:103E50000E948240D8018D939C93E5CF612C712CF8
:103E6000412C512C212C312CC12CD12C4701BAE0F2
:103E70008B0E911C89899A89AB89BC89892B8A2BE5
:103E80008B2B09F46FC18F89803609F4A6C030F4FA
:103E9000882369F0803409F46CC04AC1853F09F475
:103EA00046C08B3FF9F0803A09F042C1D4C0C1143A
:103EB000D10461F4698D7A8D41E050E0C4010E9423
:103EC000741C89E090E0F70191838083D7011E96EE
:103ED0006D917C911F97640D751DCE010D960E940A
:103EE000B91A1DC0C114D10461F4698D7A8D42E004
:103EF00050E0C4010E94741CEAE0F0E0D701ED93A9
:103F0000FC93D7011E966D917C911F97C201880F7B
:103F1000991F680F791FCE010D960E94831AF80130
:103F200020813181822B932B9183808301C1C11425
:103F3000D10461F4698D7A8D40E050E0C4010E94A3
:103F4000741CEBE0F0E0D701ED93FC93D7011E96D3
:103F5000ED91FC911F97EC0DFD1D8F89853F09F0B8
:103F600021CE81E02D893E89232B09F480E08083D6
:103F7000DFC0C114D10451F4698D7A8DC4010E944F
:103F80009E1C8CE090E0F70191838083BE01675E08
:103F90007F4FCE010D960E94E03ED8012D913C91BD
:103FA0001197822B932B8D939C93898D9A8D0196DB
:103FB0008138910518F49A8F898F04C0E0E8F0E009
:103FC000FA8FE98FD7011E966D917C911F97660D30
:103FD000771D8F898034A9F1E5CDC114D10451F446
:103FE000698D7A8DC4010E949E1CEDE0F0E0D7013E
:103FF000ED93FC93BE01675E7F4FCE010D960E944C
:10400000E03ED8012D913C911197822B932B8D93FB
:104010009C93898D9A8D01968138910518F49A8F19
:10402000898F04C0E0E8F0E0FA8FE98FD7011E968F
:104030006D917C911F97660D771D8F89803609F0F1
:10404000B1CD20E030E0AE01475E5F4FCE010D966E
:104050000E94B33D64CFC114D10489F4EEE0F0E0D6
:10406000D701ED93FC930E94721DD7011B969C9380
:104070008E931A97892B09F466CD140116C0F101AD
:10408000A080B1800E94721DD50113969C938E93DF
:104090001297D101ED91FC9182819381892B09F4D2
:1040A00052CD1F01B2E02B0E311CD101ED91FC91DC
:1040B000119786E090E09183808313821282AD9005
:1040C000BC909AE0A90EB11CBE016F5F7F4FCE017C
:1040D0000D960E94EC3ED8012D913C911197822BB8
:1040E000932B8D939C938D819E81AF81B885892B75
:1040F0008A2B8B2BE9F0A801B501CE0101960E9415
:104100007E1DF501A080B180F2E0AF0EB11CD80198
:104110008D919C91892B31F5CE0101960E948240B0
:10412000F80120813181822B932B91838083DBCF17
:10413000FFEFCF1ADF0A82E0480E511C90E8690EAB
:10414000711CD8018D919C91892B61F4CE010D9643
:104150000E948240F80120813181822B932B918330
:10416000808388CE6A960FB6F894DEBF0FBECDBFAF
:10417000DF91CF911F910F91FF90EF90DF90CF9043
:10418000BF90AF909F908F907F906F905F904F9077
:104190003F902F9008950F931F93CF93DF93C0917B
:1041A0003E10D0913F108091461090914710C81B4F
:1041B000D90BD7FF13C080914810909149108115F9
:1041C000904861F409E417E026E330E047E753E064
:1041D0006FE678E08AEA97E00E948A57809148105B
:1041E00090914910892B11F0CFEFDFEFCE01DF91D5
:1041F000CF911F910F910895EF92FF920F931F930C
:10420000CF93DF938C01EB01DC011A96ED91FC91C9
:104210001B97E280F3800E94CB20833091051CF035
:10422000282F892F02C020E080E0F70124838583B6
:10423000D8011A96ED91FC911B970280F381E02D35
:10424000C05ADF4E888190E097838683DF91CF91BB
:104250001F910F91FF90EF900895CF92DF92FF9200
:104260000F931F93CF93DF938C01FC01C085D18501
:10427000F12C8EEBC82E88E0D82E209709F1898585
:104280008F9388858F93DF92CF920E94685F0F9003
:104290000F900F900F9088819981039729F4FA84E9
:1042A0000A80DB81C02DE9CF65E070E0C801DF91B5
:1042B000CF911F910F91FF90DF90CF900C94FC2035
:1042C00060E070E0C8010E94FC20F092290FDF91AD
:1042D000CF911F910F91FF90DF90CF9008950C9494
:1042E0002D210F931F93CF93DF93EC018A018A81D5
:1042F0009B8128813981AC01421B530B9A01401BE1
:10430000510B57FF11C0892B31F0021B130B1B827D
:104310001A821982188288819981080F191F1983BE
:10432000088380E090E80DC0A801888199810E94EF
:10433000105F88819981080F191F1983088380E015
:1043400090E0DF91CF911F910F910895CF93DF936C
:104350001F92CDB7DEB7FC01DB018D919C911197C7
:104360009183808312968D919C911397938382837E
:1043700016962C91169722FF0BC0CF012FEF2983A1
:1043800041E050E0BE016F5F7F4F0E94712116C077
:1043900014962D913C9115972130310529F0232B4E
:1043A00041F081E093E00AC0892B31F080E090E099
:1043B00005C080E093E002C080E090E80F90DF91BC
:1043C000CF9108957F928F929F92AF92BF92CF929A
:1043D000DF92EF92FF920F931F93CF93DF93CDB7AE
:1043E000DEB760970FB6F894DEBF0FBECDBF5C019D
:1043F000722E832E942EC52ED62EF72E9801472D81
:10440000582D692D7C2D8D2D9F2D0E94A960B92FCF
:1044100029873A874B875C876D877E878F87988B44
:104420009801472D582D692D7C2D8D2D9F2DA7E1AD
:10443000FE0170960E94EA6009F020F4EB0EE88A13
:10444000BF013AC09801472D582D692D7C2D8D2D27
:104450009F2D2F3F310541055105610571058105EE
:10446000910509F008F444C02F3FAFEF3A0741052A
:1044700051056105710581059105E1F1D8F12F3FE5
:104480003F4F4F4F5F4F610571058105910519F051
:1044900010F083E001C082E021E030E0082E02C08D
:1044A000220F331F0A94E2F7BF01621B730B98E1DE
:1044B0009E0D890FFB018083AE014F5E5F4F461B4F
:1044C000570BC5010E94712160960FB6F894DEBFAC
:1044D0000FBECDBFDF91CF911F910F91FF90EF9055
:1044E000DF90CF90BF90AF909F908F907F90089576
:1044F00080E0D2CF81E0D0CF2F923F924F925F9257
:104500006F927F928F929F92AF92BF92CF92DF92E3
:10451000EF920F931F93CF93DF93EC015B016A013E
:104520001A018C819D81009719F001979D838C83DE
:1045300080E6E82E810120E030E040E050E060E0DD
:1045400070E0CE010E94E221A601B501CE01DF910B
:10455000CF911F910F91EF90DF90CF90BF90AF90D0
:104560009F908F907F906F905F904F903F902F9093
:104570000C947121EF92FF921F93CF93DF93CDB7ED
:10458000DEB728970FB6F894DEBF0FBECDBF7C0113
:10459000162F42E050E068E277E00E947C222091F2
:1045A000481030914910822B932B9093491080939F
:1045B0004810BE016F5F7F4FC7010E945751209185
:1045C000481030914910822B932B9093491080937F
:1045D000481012FF12C049E050E06BE377E0CE01D3
:1045E00001960E947C222091481030914910822B24
:1045F000932B909349108093481013FF12C048E00A
:1046000050E065E477E0CE0101960E947C22209183
:10461000481030914910822B932B9093491080932E
:10462000481014FF12C048E050E061E078E0CE018D
:1046300001960E947C222091481030914910822BD3
:10464000932B909349108093481015FF12C049E0B6
:1046500050E067EF77E0CE0101960E947C22209126
:10466000481030914910822B932B909349108093DE
:10467000481016FF12C048E050E06AE078E0CE0132
:1046800001960E947C222091481030914910822B83
:10469000932B909349108093481017FF12C048E065
:1046A00050E063E178E0CE0101960E947C222091E7
:1046B000481030914910822B932B9093491080938E
:1046C00048104FE050E06BE277E0CE0101960E9487
:1046D0007C222091481030914910822B932B90938B
:1046E000491080934810BE016F5F7F4FC7010E9441
:1046F000A6212091481030914910822B932B909342
:1047000049108093481028960FB6F894DEBF0FBE6C
:10471000CDBFDF91CF911F91FF90EF900895CF9281
:10472000DF92EF92FF920F931F93CF93DF93CDB75A
:10473000DEB728970FB6F894DEBF0FBECDBF8C0151
:10474000FC0186819781029758F141E050E061EDCC
:1047500079E08CEA90E10E947C222091481030910F
:104760004910822B932B9093491080934810F801A5
:1047700060857185FB0101900020E9F73197AF0159
:10478000461B570B8CEA90E10E947C222091481036
:1047900030914910822B932B9093491080934810AD
:1047A00042E050E067EC78E08CEA90E10E947C22E5
:1047B0002091481030914910822B932B90934910EF
:1047C00080934810BE016F5F7F4F8CEA90E10E949A
:1047D00057512091481030914910822B932B909380
:1047E000491080934810C12CD12CE12CF12CF801F8
:1047F00082899389880F892F881F990B9195E816D4
:10480000F9062CF5F801648975896C0D7D1DFB0195
:1048100080818823A9F001900020E9F73197AF014A
:10482000461B570BCE0101960E947C222091481016
:1048300030914910822B932B90934910809348100C
:10484000FFEFEF1AFF0A80E8C80ED11CD0CFBE01DF
:104850006F5F7F4F8CEA90E10E94A6212091481063
:1048600030914910822B932B9093491080934810DC
:10487000F801668977898CEA90E10E94BA2228962D
:104880000FB6F894DEBF0FBECDBFDF91CF911F9161
:104890000F91FF90EF90DF90CF900895AF92BF926D
:1048A000CF92DF92EF92FF920F931F93CF93DF93FC
:1048B000CDB7DEB7CA54D1090FB6F894DEBF0FBE2C
:1048C000CDBF7C015B01DC011296ED91FC91139749
:1048D000C280D3806CEA70E18EE390E10E945A516D
:1048E0002091481030914910822B932B90934910BE
:1048F0008093481086E38C9D80018D9D100D1124BE
:104900008091A6109091A710FE0131966F01BF0112
:10491000800F911F0E948F47D701ED91FC91309736
:1049200089F0828D938D8034984061F08091A6103B
:104930009091A710800F911FBE016A5D7F4F409636
:104940000E948F47E2E0AE16B10429F0F0E1AF1605
:10495000B10441F006C1D70112968D919C91139735
:104960000E948F2342E050E06AEC78E08CEA90E10C
:104970000E947C222091481030914910822B932B69
:104980009093491080934810F60101900020E9F7B8
:104990003197AF014C195D09B6018CEA90E10E9494
:1049A0007C222091481030914910822B932B9093B8
:1049B000491080934810D701ED91FC91309781F117
:1049C000828D938D8034984059F144E050E06DEC35
:1049D00078E08CEA90E10E947C222091481030918E
:1049E0004910822B932B9093491080934810BE015D
:1049F0006A5D7F4FFB0101900020E9F73197AF011D
:104A0000461B570B8CEA90E10E947C2220914810B3
:104A100030914910822B932B90934910809348102A
:104A200041E050E061ED79E08CEA90E10E947C2267
:104A30002091481030914910822B932B909349106C
:104A400080934810E091A610F091A710E00FF11F9D
:104A500064A175A1FB0101900020E9F73197AF0136
:104A6000461B570B8CEA90E10E947C222091481053
:104A700030914910822B932B9093491080934810CA
:104A800043E050E062ED78E08CEA90E10E947C2205
:104A90002091481030914910822B932B909349100C
:104AA00080934810E091A610F091A710E00FF11F3D
:104AB00062A573A5FB0101900020E9F73197AF01D2
:104AC000461B570B8CEA90E10E947C2220914810F3
:104AD00030914910822B932B90934910809348106A
:104AE00043E050E066ED78E08CEA90E10E947C22A1
:104AF0002091481030914910822B932B90934910AC
:104B000080934810E091A610F091A710E00FF11FDC
:104B100060A971A9FB0101900020E9F73197AF016D
:104B2000461B570B8CEA90E10E947C222091481092
:104B300030914910822B932B909349108093481009
:104B4000A091A610B091A710A00FB11FD296ED9121
:104B5000FC91D397309729F0D4968D919C91D5975D
:104B600019956CEA70E18EE390E10E94A6212091F4
:104B7000481030914910822B932B909349108093C9
:104B8000481060E070E0C7010E94FC20C65BDF4F68
:104B90000FB6F894DEBF0FBECDBFDF91CF911F914E
:104BA0000F91FF90EF90DF90CF90BF90AF9008955E
:104BB0000F931F93CF93DF93EC018B016CEA70E1AD
:104BC0008EE390E10E945D51209148103091491090
:104BD000822B932B9093491080934810023011053B
:104BE00021F00032110529F025C08A819B810E94A5
:104BF0008F2345E050E06AED78E08CEA90E10E9476
:104C00007C222091481030914910822B932B909355
:104C10004910809348108091290F8C5E0E942E517C
:104C20002091481030914910822B932B909349107A
:104C3000809348106CEA70E18EE390E10E94A62117
:104C40002091481030914910822B932B909349105A
:104C50008093481060E070E0CE010E94FC208091BB
:104C6000290F1F928F9380EE98E09F938F930E945D
:104C7000685F0F900F900F900F90DF91CF911F9171
:104C80000F910895CF93DF9347E050E060EF78E015
:104C90008CEA90E10E947C22C8E4D0E1288139812D
:104CA000822B932B9983888349E050E068EF78E06A
:104CB0008CEA90E10E947C2228813981822B932BFF
:104CC00099838883DF91CF910895CF93DF93CDB7F8
:104CD000DEB7CA59D1090FB6F894DEBF0FBECDBFFB
:104CE0002AE9E0E9F3E0DE01119601900D922A95A0
:104CF000E1F7DC011A96ED91FC911B970280F3819C
:104D0000E02DA081B1812AE9FE01319601900D923A
:104D10002A95E1F7DC011A96ED91FC911B97028030
:104D2000F381E02D8AE990E095838483809160107F
:104D300090E097838683C656DF4F0FB6F894DEBFA8
:104D40000FBECDBFDF91CF910895CF93DF93EC01DC
:104D500088819981009789F0883D944021F01982DB
:104D6000188283E00FC0683841F48AE590E10E9420
:104D7000673488E590E10E94673488ED94E0998378
:104D8000888381E0DF91CF9108950E94BF3021E0B8
:104D900030E0892B11F420E030E0C90108950E9431
:104DA000BF3080E090E008952F923F924F925F9243
:104DB0006F927F928F929F92AF92BF92CF92DF922B
:104DC000EF92FF920F931F93CF93DF9300D000D009
:104DD000CDB7DEB76C013B015A83498319013F927D
:104DE0002F931F930F931F930F93DF928F9383E261
:104DF0008F938BE398E09F938F931F928DEB8F930C
:104E00008AE2882E84E0982E9F928F9290E7A92EB6
:104E100096E0B92EBF92AF9280E698E09F938F9371
:104E20000E9438580FB6F894DEBF0FBECDBFEE20FB
:104E300009F497C02101812C912C1E821D82C8018A
:104E400001969C838B830E2C000CFF08EB81FC8168
:104E5000E815F90508F4BFC05101A80CB91CF5010B
:104E600080811F928F931F930F939F928F92F4E1F3
:104E7000FF9322E238E03F932F931F929CEC9F9385
:104E8000EAE2F4E0FF93EF9380E796E09F938F933D
:104E900025E338E03F932F930E943858F501808135
:104EA00090E00FB6F894DEBF0FBECDBF8E159F0504
:104EB00021F08016910609F050C0A418B508C6016B
:104EC000861997093C0149815A81ED81FE814E0F77
:104ED0005F1FB5010E946E372D813E81280F391F5B
:104EE0003E832D83A501B20189819A81820F931F90
:104EF0000E94105F8D819E818A0D9B1D9E838D83F4
:104F00005F924F92BF92AF929F938F937F926F92D7
:104F1000DF92CF9291E49F93ECEEF7E0FF93EF9353
:104F20001F923DED3F938AE294E09F938F9320E799
:104F300036E03F932F93ECE1F8E0FF93EF930E946C
:104F400038583FEF831A930A2101480C591C0FB6B9
:104F5000F894DEBF0FBECDBF36019FEF891A990AC4
:104F600075CF960126193709390149815A81B8014F
:104F7000C9010E946E379C838B83A801B10189818E
:104F80009A81EB81FC818E0F9F1F0E94105F2B8105
:104F90003C81200F311F3E832D831F930F937F92FF
:104FA0006F92DF92CF9288E28F9383EC97E09F938A
:104FB0008F931F9281EF8F939F928F92BF92AF92A8
:104FC00086EE97E09F938F930E9438580FB6F8941F
:104FD000DEBF0FBECDBF8D819E8126960FB6F894A1
:104FE000DEBF0FBECDBFDF91CF911F910F91FF901C
:104FF000EF90DF90CF90BF90AF909F908F907F9079
:105000006F905F904F903F902F900895E0915A10CD
:10501000F0915B10309749F0208D318D28173907BA
:1050200039F00190F081E02DF5CF80E090E0089517
:10503000CF0108952F923F924F925F926F927F928D
:105040008F929F92AF92BF92CF92DF92EF92FF9298
:105050000F931F93CF93DF935C014A01190128013D
:10506000EC01C60FD71F8C01612C712C21E0C21AF4
:10507000D108AE01401B510B6C147D0444F06DE36C
:1050800070E0C8010E94F65E009789F43BC0892B4E
:10509000B1F366E270E0C8010E94F65E009791F1FC
:1050A000EFEF6E1A7E0A8C010F5F1F4FE2CF9C015B
:1050B000201B310BF10131832083F4011183008324
:1050C0008C010F5F1F4FF20111830083C01BD10BB6
:1050D000AE0166E270E0C8010E94F65E009721F41E
:1050E000F701D183C08305C0801B910BF701918329
:1050F0008083F70180819181800F911F8A199B091C
:10510000019602C08FEF9FEFDF91CF911F910F911A
:10511000FF90EF90DF90CF90BF90AF909F908F90D7
:105120007F906F905F904F903F902F9008950F93D6
:105130001F93CF93DF93EB01FC01448155812C81B8
:105140003D81242735272F7B232B61F562817381D5
:105150002A813B816217730729F58C0143FF06C042
:1051600040E150E0BE01685F7F4F07C042FF1AC0B8
:1051700044E050E0BE01685F7F4F08960E94035FE5
:10518000892B81F481E090E0F801468157812E81DE
:105190003F814217530711F480E090E0919581958B
:1051A000910902C08FEF9FEFDF91CF911F910F9177
:1051B00008952F923F924F925F926F927F928F92BB
:1051C0009F92AF92BF92CF92DF92EF92FF920F9396
:1051D0001F93CF93DF93CDB7DEB7EE970FB6F8945A
:1051E000DEBF0FBECDBF7C014B01FC01848183FF7C
:1051F000F8C09701285F3F4F3CAF2BAF8BE5898309
:10520000412C512C212C312C01E010E018AE1FAAAA
:10521000A12CB12C80E190E09AAF89AFC12CD12CA8
:10522000EBADFCADEC0DFD1DC0FC1AC08081811101
:1052300017C08181811114C0C6010297E9ADFAAD92
:105240008E179F0719F01801A12CB12CF2E0AF0EB8
:10525000B11CDAAEC9AE96012E5F3F4F69016BC03B
:105260008FA998AD8A159B051CF4B8AEAFAA210191
:10527000C60101970E9750F4A1E0B0E0AC0FBD1F3E
:10528000A00FB11F9AE39C930F5F1F4F3F01F301E3
:10529000C0FC05C08081882309F445C004C0319753
:1052A0008081811124C0F3018081803100F5980153
:1052B0002F5F3F4F3EAF2DAF1F928F9382E099E05B
:1052C0009F938F931F92F2E0FF9321E030E02C0F29
:1052D0003D1F020F131F1F930F930E947C5F0FB699
:1052E000F894DEBF0FBECDBF0DAD1EAD1CC0F301E7
:1052F00080811F928F9325E039E03F932F931F9277
:1053000093E09F9381E090E08C0F9D1F800F911F91
:105310009F938F930E947C5F0E5F1F4F0FB6F89490
:10532000DEBF0FBECDBFFFEFCF1ADF0A2FEF621A2D
:10533000720AC0FCACCF30E1C316D1040CF470CFBC
:105340008FA998AD8A159B050CF42101E9ADFAAD42
:105350003E9751F4E1E0F0E0EC0FFD1FE00FF11F8C
:105360008AE380830F5F1F4FE1E0F0E0EC0FFD1F49
:10537000E00FF11FC80141145104A1F03197481604
:10538000590624F4019720812183F5CFF701878105
:105390008F9386818F938AE099E09F938F930F5F1D
:1053A0001F4F09C0F70187818F9386818F938AE011
:1053B00099E09F938F9321E030E02C0F3D1F020F67
:1053C000131F1F930F930E94B95F0F900F900F90C0
:1053D0000F900F900F90F7018481AE014F5F5F4FE8
:1053E00026C082FF31C0F70187818F9386818F931A
:1053F00083851F928F9382851F928F9381851F9241
:105400008F9380851F928F9380E299E09F938F9373
:105410008E010F5F1F4F1F930F930E94B95FF7011B
:1054200084810FB6F894DEBF0FBECDBFA80181FF07
:1054300003C06FE079E002C068E179E0C4010E9436
:10544000C61C80E090E002C08FEF9FEFEE960FB693
:10545000F894DEBF0FBECDBFDF91CF911F910F91AA
:10546000FF90EF90DF90CF90BF90AF909F908F9084
:105470007F906F905F904F903F902F900895CF93C3
:10548000DF938091300F9091310F009741F0FC0134
:10549000D081C1810E943F5A8D2F9C2FF6CF109250
:1054A000310F1092300FDF91CF910895CF92DF929C
:1054B000EF92FF920F931F93CF93DF93CDB7DEB799
:1054C00066970FB6F894DEBF0FBECDBF8C016B019F
:1054D0007E0181E1E80EF11C86E0F70111928A95C8
:1054E000E9F70E943F2A8B899C89029730F465E096
:1054F00070E0C8010E94FC20FEC06CEA70E18EE3FF
:1055000090E10E945A512091481030914910822B0D
:10551000932B9093491080934810F2E0CF16D1045A
:1055200029F080E1C816D10431F0CDC0F8018281A4
:1055300093810E948F2347E050E06FE279E08CEA8C
:1055400090E10E947C222091481030914910822BDA
:10555000932B9093491080934810BE01675F7F4F53
:105560008CEA90E10E9457512091481030914910E7
:10557000822B932B9093491080934810BE016F5F4C
:105580007F4FCE0109960E945A51209148103091C8
:105590004910822B932B90934910809348104CE034
:1055A00050E067E379E0CE0101960E947C222091D1
:1055B000481030914910822B932B9093491080937F
:1055C000481040E150E064E479E0CE0101960E9489
:1055D0007C222091481030914910822B932B90937C
:1055E00049108093481048E050E065E579E0CE012D
:1055F00001960E947C222091481030914910822B04
:10560000932B909349108093481044E050E06EE54E
:1056100079E0CE0101960E947C22209148103091C1
:105620004910822B932B909349108093481043E0AC
:1056300050E063E679E0CE0101960E947C22209141
:10564000481030914910822B932B909349108093EE
:1056500048106D897E89FB0101900020E9F73197A0
:10566000AF01461B570BCE0101960E947C22209170
:10567000481030914910822B932B909349108093BE
:105680004810BE016F5F7F4FCE0109960E94A62190
:105690002091481030914910822B932B9093491000
:1056A00080934810BE01675F7F4F8CEA90E10E94B3
:1056B000A6212091481030914910822B932B909372
:1056C0004910809348106CEA70E18EE390E10E94EB
:1056D000A6212091481030914910822B932B909352
:1056E00049108093481060E070E0C8010E94FC20DF
:1056F000C7010E94641C66960FB6F894DEBF0FBE09
:10570000CDBFDF91CF911F910F91FF90EF90DF9070
:10571000CF900895CF93DF93EC018F8D8F938E8D73
:105720008F938EE18F9386EC9EE09F938F9384E01E
:105730008F9383E68F9384E794E09F938F9380E722
:1057400096E09F938F9382EE9EE09F938F930E94AB
:105750003858AE01609183108EE392E00E94544469
:105760002DB73EB7235F3F4F0FB6F8943EBF0FBE35
:105770002DBF019719F488A1815088A3E09186106C
:10578000F0918710309731F00280F381E02DDF91A6
:10579000CF911994DF91CF9108954F925F926F92BC
:1057A0007F928F929F92AF92BF92CF92DF92EF92B1
:1057B000FF920F931F93CF93DF93CDB7DEB7C659F8
:1057C000D1090FB6F894DEBF0FBECDBF6C012B011F
:1057D000DC0111967C936E9381E012968C93FE010E
:1057E00031963F01FF93EF9397E09F932FE73DE0C2
:1057F0003F932F938F938EE38F9386E494E09F9350
:105800008F9380E796E09F938F938AE99DE09F9323
:105810008F930E943858D60151968C910FB6F89408
:10582000DEBF0FBECDBF84FF22C004E81CE029E428
:1058300031E046E454E060E776E089E79DE00E94CD
:105840008A57D6015F960C9110E0E12C9601205EFC
:105850003F4FA30160E070E084E090E00E94D42616
:105860005301A80EB91E94E0892E912C03C0812CFF
:10587000912C5301F601818986FF1EC002E41CE0D1
:105880002FE431E046E454E060E776E08EE79CE008
:105890000E948A57F601EE5BFF4F00811181228141
:1058A0003381A501B40186E090E00E94E337A80EA1
:1058B000B91E86E0882E912CD60151968C9187FFD7
:1058C0001CC00EEF1BE020E531E046E454E060E749
:1058D00076E08CE39CE00E948A57F60100AD11ADA2
:1058E00020E030E0A501B40187E090E00E94E337BA
:1058F000A80EB91E07E0802E912CD60152968C91ED
:1059000083FF20C009EA1BE025E531E046E454E0CE
:1059100060E776E088EF9BE00E948A57F60106ADCB
:1059200017ADE05CFF4F20813181BFE2EB2EA50176
:10593000B4018BE090E00E94D426A80EB91E1BE0B3
:10594000812E912CD6015A968C915A978F93599605
:105950008C918F9389E18F9385E89BE09F938F9340
:1059600081E08F9388E58F9386E494E09F938F93F3
:1059700080E796E09F938F9383EA9BE09F938F93BA
:105980000E943858F60182890FB6F894DEBF0FBE28
:10599000CDBF84FF1EC005E31BE02EE531E046E4E9
:1059A00054E060E776E08FE79BE00E948A57D601DB
:1059B00059960D911C915A9720E030E0A501B40151
:1059C0008CE090E00E94E337A80EB91EACE08A2E6E
:1059D000912CF601828987FF21C00DED1AE023E6A4
:1059E00031E046E454E060E776E08FE29BE00E941D
:1059F0008A57F601E159FF4F0081118132962081CB
:105A00003181E6E2EE2EA501B4018FE090E00E9424
:105A1000D426A80EB91EFFE08F2E912CD6015396E6
:105A20008C9181FF1EC00DE91AE024E631E046E4C6
:105A300054E060E776E087ED9AE00E948A57F6012D
:105A4000EA5BFF4F0081118120E030E0A501B40145
:105A500081E190E00E94E337A80EB91E71E1872E24
:105A6000912CF601838987FF69C001E11AE029E6DC
:105A700031E046E454E060E776E087E99AE00E948E
:105A80008A57F601EF5AFF4F80819181A281B3813D
:105A90007C018D0164E0EE0CFF1C001F111F6A9554
:105AA000D1F734968081882311F06894E3F8F601E9
:105AB000EA5AFF4F2081318154E0369527955A9557
:105AC000E1F780E090E036952795AC014F5F5F4F9E
:105AD0002115310511F0CA01F6CF8F709927A0E08A
